{
  "contractName": "AccessControl",
  "abi": [
    {
      "constant": true,
      "inputs": [],
      "name": "cfoAddress",
      "outputs": [
        {
          "name": "",
          "type": "address"
        }
      ],
      "payable": false,
      "stateMutability": "view",
      "type": "function"
    },
    {
      "constant": true,
      "inputs": [],
      "name": "ceoAddress",
      "outputs": [
        {
          "name": "",
          "type": "address"
        }
      ],
      "payable": false,
      "stateMutability": "view",
      "type": "function"
    },
    {
      "constant": true,
      "inputs": [],
      "name": "paused",
      "outputs": [
        {
          "name": "",
          "type": "bool"
        }
      ],
      "payable": false,
      "stateMutability": "view",
      "type": "function"
    },
    {
      "constant": true,
      "inputs": [],
      "name": "cooAddress",
      "outputs": [
        {
          "name": "",
          "type": "address"
        }
      ],
      "payable": false,
      "stateMutability": "view",
      "type": "function"
    },
    {
      "constant": false,
      "inputs": [
        {
          "name": "_newCEO",
          "type": "address"
        }
      ],
      "name": "setCEO",
      "outputs": [],
      "payable": false,
      "stateMutability": "nonpayable",
      "type": "function"
    },
    {
      "constant": false,
      "inputs": [
        {
          "name": "_newCFO",
          "type": "address"
        }
      ],
      "name": "setCFO",
      "outputs": [],
      "payable": false,
      "stateMutability": "nonpayable",
      "type": "function"
    },
    {
      "constant": false,
      "inputs": [
        {
          "name": "_newCOO",
          "type": "address"
        }
      ],
      "name": "setCOO",
      "outputs": [],
      "payable": false,
      "stateMutability": "nonpayable",
      "type": "function"
    }
  ],
  "bytecode": "0x60806040526000600260146101000a81548160ff02191690831515021790555034801561002b57600080fd5b506105c58061003b6000396000f300608060405260043610610083576000357c0100000000000000000000000000000000000000000000000000000000900463ffffffff1680630519ce79146100885780630a0f8168146100df57806327d7874c146101365780632ba73c15146101795780634e0a3379146101bc5780635c975abb146101ff578063b047fb501461022e575b600080fd5b34801561009457600080fd5b5061009d610285565b604051808273ffffffffffffffffffffffffffffffffffffffff1673ffffffffffffffffffffffffffffffffffffffff16815260200191505060405180910390f35b3480156100eb57600080fd5b506100f46102ab565b604051808273ffffffffffffffffffffffffffffffffffffffff1673ffffffffffffffffffffffffffffffffffffffff16815260200191505060405180910390f35b34801561014257600080fd5b50610177600480360381019080803573ffffffffffffffffffffffffffffffffffffffff1690602001909291905050506102d0565b005b34801561018557600080fd5b506101ba600480360381019080803573ffffffffffffffffffffffffffffffffffffffff1690602001909291905050506103aa565b005b3480156101c857600080fd5b506101fd600480360381019080803573ffffffffffffffffffffffffffffffffffffffff169060200190929190505050610485565b005b34801561020b57600080fd5b50610214610560565b604051808215151515815260200191505060405180910390f35b34801561023a57600080fd5b50610243610573565b604051808273ffffffffffffffffffffffffffffffffffffffff1673ffffffffffffffffffffffffffffffffffffffff16815260200191505060405180910390f35b600160009054906101000a900473ffffffffffffffffffffffffffffffffffffffff1681565b6000809054906101000a900473ffffffffffffffffffffffffffffffffffffffff1681565b6000809054906101000a900473ffffffffffffffffffffffffffffffffffffffff1673ffffffffffffffffffffffffffffffffffffffff163373ffffffffffffffffffffffffffffffffffffffff1614151561032b57600080fd5b600073ffffffffffffffffffffffffffffffffffffffff168173ffffffffffffffffffffffffffffffffffffffff161415151561036757600080fd5b806000806101000a81548173ffffffffffffffffffffffffffffffffffffffff021916908373ffffffffffffffffffffffffffffffffffffffff16021790555050565b6000809054906101000a900473ffffffffffffffffffffffffffffffffffffffff1673ffffffffffffffffffffffffffffffffffffffff163373ffffffffffffffffffffffffffffffffffffffff1614151561040557600080fd5b600073ffffffffffffffffffffffffffffffffffffffff168173ffffffffffffffffffffffffffffffffffffffff161415151561044157600080fd5b80600260006101000a81548173ffffffffffffffffffffffffffffffffffffffff021916908373ffffffffffffffffffffffffffffffffffffffff16021790555050565b6000809054906101000a900473ffffffffffffffffffffffffffffffffffffffff1673ffffffffffffffffffffffffffffffffffffffff163373ffffffffffffffffffffffffffffffffffffffff161415156104e057600080fd5b600073ffffffffffffffffffffffffffffffffffffffff168173ffffffffffffffffffffffffffffffffffffffff161415151561051c57600080fd5b80600160006101000a81548173ffffffffffffffffffffffffffffffffffffffff021916908373ffffffffffffffffffffffffffffffffffffffff16021790555050565b600260149054906101000a900460ff1681565b600260009054906101000a900473ffffffffffffffffffffffffffffffffffffffff16815600a165627a7a7230582074adbb0f573f1f538b85dd321f837c3db4a119b6cfada8a7addeab602af2652e0029",
  "source": "pragma solidity ^0.4.24;\r\n\r\n\r\n// @dev 权限控制合约，能够控制合约的流通和合约的销毁等一系列操作\r\ncontract AccessControl {\r\n    address public ceoAddress;\r\n    address public cfoAddress;\r\n    address public cooAddress;\r\n\r\n    // @dev 控制合约的提现功能\r\n    bool public paused = false;\r\n\r\n    /// @dev 只有ceo能调用\r\n    modifier onlyCEO() {\r\n        require(msg.sender == ceoAddress);\r\n        _;\r\n    }\r\n\r\n    /// @dev 只有cfo能调用\r\n    modifier onlyCFO() {\r\n        require(msg.sender == cfoAddress);\r\n        _;\r\n    }\r\n\r\n    /// @dev 只有coo能调用\r\n    modifier onlyCOO() {\r\n        require(msg.sender == cooAddress);\r\n        _;\r\n    }\r\n\r\n    // @dev 只有ceo,cfo,coo能调用\r\n    modifier onlyCLevel() {\r\n        require(\r\n            msg.sender == cooAddress ||\r\n            msg.sender == ceoAddress ||\r\n            msg.sender == cfoAddress\r\n        );\r\n        _;\r\n    }\r\n\r\n    /// @dev 重新设置ceo地址\r\n    function setCEO(address _newCEO) external onlyCEO {\r\n        require(_newCEO != address(0));\r\n\r\n        ceoAddress = _newCEO;\r\n    }\r\n\r\n    /// @dev 重新设置cfo地址\r\n    function setCFO(address _newCFO) external onlyCEO {\r\n        require(_newCFO != address(0));\r\n\r\n        cfoAddress = _newCFO;\r\n    }\r\n\r\n    /// @dev 重新设置coo地址\r\n    function setCOO(address _newCOO) external onlyCEO {\r\n        require(_newCOO != address(0));\r\n\r\n        cooAddress = _newCOO;\r\n    }\r\n\r\n    /// @dev 合约是否允许提现\r\n    modifier whenNotPaused() {\r\n        require(!paused);\r\n        _;\r\n    }\r\n\r\n    /// @dev 合约是否暂停提现操作\r\n    modifier whenPaused {\r\n        require(paused);\r\n        _;\r\n    }\r\n\r\n    /// @dev 暂停合约所有者的提现功能\r\n    function pause() internal {\r\n        paused = true;\r\n    }\r\n\r\n    /// @dev 允许合约所有者的提现功能\r\n    function unpause() internal {\r\n        paused = false;\r\n    }\r\n}\r\n",
  "sourcePath": "D:\\programming\\dapp\\gongyi\\contracts\\AccessControl.sol",
  "compiler": {
    "name": "solc",
    "version": "0.4.24+commit.e67f0147.Emscripten.clang"
  },
  "schemaVersion": "2.0.0",
  "updatedAt": "2018-08-13T05:54:01.303Z"
}