{
  "contractName": "GYPTransfer",
  "abi": [
    {
      "constant": true,
      "inputs": [],
      "name": "cfoAddress",
      "outputs": [
        {
          "name": "",
          "type": "address"
        }
      ],
      "payable": false,
      "stateMutability": "view",
      "type": "function"
    },
    {
      "constant": true,
      "inputs": [],
      "name": "name",
      "outputs": [
        {
          "name": "",
          "type": "string"
        }
      ],
      "payable": false,
      "stateMutability": "view",
      "type": "function"
    },
    {
      "constant": true,
      "inputs": [],
      "name": "ceoAddress",
      "outputs": [
        {
          "name": "",
          "type": "address"
        }
      ],
      "payable": false,
      "stateMutability": "view",
      "type": "function"
    },
    {
      "constant": true,
      "inputs": [],
      "name": "timeStamp",
      "outputs": [
        {
          "name": "",
          "type": "uint256"
        }
      ],
      "payable": false,
      "stateMutability": "view",
      "type": "function"
    },
    {
      "constant": false,
      "inputs": [
        {
          "name": "_newCEO",
          "type": "address"
        }
      ],
      "name": "setCEO",
      "outputs": [],
      "payable": false,
      "stateMutability": "nonpayable",
      "type": "function"
    },
    {
      "constant": false,
      "inputs": [
        {
          "name": "_newCOO",
          "type": "address"
        }
      ],
      "name": "setCOO",
      "outputs": [],
      "payable": false,
      "stateMutability": "nonpayable",
      "type": "function"
    },
    {
      "constant": false,
      "inputs": [
        {
          "name": "_newCFO",
          "type": "address"
        }
      ],
      "name": "setCFO",
      "outputs": [],
      "payable": false,
      "stateMutability": "nonpayable",
      "type": "function"
    },
    {
      "constant": true,
      "inputs": [],
      "name": "url",
      "outputs": [
        {
          "name": "",
          "type": "string"
        }
      ],
      "payable": false,
      "stateMutability": "view",
      "type": "function"
    },
    {
      "constant": true,
      "inputs": [],
      "name": "paused",
      "outputs": [
        {
          "name": "",
          "type": "bool"
        }
      ],
      "payable": false,
      "stateMutability": "view",
      "type": "function"
    },
    {
      "constant": true,
      "inputs": [],
      "name": "description",
      "outputs": [
        {
          "name": "",
          "type": "string"
        }
      ],
      "payable": false,
      "stateMutability": "view",
      "type": "function"
    },
    {
      "constant": true,
      "inputs": [],
      "name": "getContractInfo",
      "outputs": [
        {
          "name": "",
          "type": "uint256"
        },
        {
          "name": "",
          "type": "string"
        },
        {
          "name": "",
          "type": "string"
        },
        {
          "name": "",
          "type": "string"
        },
        {
          "name": "",
          "type": "string"
        },
        {
          "name": "",
          "type": "uint256"
        }
      ],
      "payable": false,
      "stateMutability": "view",
      "type": "function"
    },
    {
      "constant": true,
      "inputs": [],
      "name": "owner",
      "outputs": [
        {
          "name": "",
          "type": "address"
        }
      ],
      "payable": false,
      "stateMutability": "view",
      "type": "function"
    },
    {
      "constant": true,
      "inputs": [],
      "name": "limit",
      "outputs": [
        {
          "name": "",
          "type": "uint256"
        }
      ],
      "payable": false,
      "stateMutability": "view",
      "type": "function"
    },
    {
      "constant": true,
      "inputs": [],
      "name": "cooAddress",
      "outputs": [
        {
          "name": "",
          "type": "address"
        }
      ],
      "payable": false,
      "stateMutability": "view",
      "type": "function"
    },
    {
      "constant": true,
      "inputs": [],
      "name": "ipfsHash",
      "outputs": [
        {
          "name": "",
          "type": "string"
        }
      ],
      "payable": false,
      "stateMutability": "view",
      "type": "function"
    },
    {
      "constant": false,
      "inputs": [
        {
          "name": "newOwner",
          "type": "address"
        }
      ],
      "name": "transferOwnership",
      "outputs": [],
      "payable": false,
      "stateMutability": "nonpayable",
      "type": "function"
    },
    {
      "anonymous": false,
      "inputs": [
        {
          "indexed": false,
          "name": "_from",
          "type": "address"
        },
        {
          "indexed": false,
          "name": "_to",
          "type": "address"
        },
        {
          "indexed": false,
          "name": "_amount",
          "type": "uint256"
        },
        {
          "components": [
            {
              "name": "name",
              "type": "string"
            },
            {
              "name": "to",
              "type": "address"
            },
            {
              "name": "amount",
              "type": "uint256"
            },
            {
              "name": "timeStamp",
              "type": "uint256"
            },
            {
              "name": "data",
              "type": "string"
            },
            {
              "name": "url",
              "type": "string"
            }
          ],
          "indexed": false,
          "name": "_data",
          "type": "tuple"
        }
      ],
      "name": "Transfer",
      "type": "event"
    },
    {
      "anonymous": false,
      "inputs": [
        {
          "indexed": false,
          "name": "_balance",
          "type": "uint256"
        },
        {
          "indexed": false,
          "name": "_timeStamp",
          "type": "uint256"
        }
      ],
      "name": "ReachLimit",
      "type": "event"
    },
    {
      "constant": true,
      "inputs": [],
      "name": "getAmount",
      "outputs": [
        {
          "name": "",
          "type": "uint256"
        }
      ],
      "payable": false,
      "stateMutability": "view",
      "type": "function"
    },
    {
      "constant": true,
      "inputs": [
        {
          "name": "_addr",
          "type": "address"
        }
      ],
      "name": "getTransactionByAddress",
      "outputs": [
        {
          "components": [
            {
              "name": "name",
              "type": "string"
            },
            {
              "name": "to",
              "type": "address"
            },
            {
              "name": "amount",
              "type": "uint256"
            },
            {
              "name": "timeStamp",
              "type": "uint256"
            },
            {
              "name": "data",
              "type": "string"
            },
            {
              "name": "url",
              "type": "string"
            }
          ],
          "name": "",
          "type": "tuple[]"
        }
      ],
      "payable": false,
      "stateMutability": "view",
      "type": "function"
    },
    {
      "constant": true,
      "inputs": [],
      "name": "getTransactions",
      "outputs": [
        {
          "components": [
            {
              "name": "name",
              "type": "string"
            },
            {
              "name": "to",
              "type": "address"
            },
            {
              "name": "amount",
              "type": "uint256"
            },
            {
              "name": "timeStamp",
              "type": "uint256"
            },
            {
              "name": "data",
              "type": "string"
            },
            {
              "name": "url",
              "type": "string"
            }
          ],
          "name": "",
          "type": "tuple[]"
        }
      ],
      "payable": false,
      "stateMutability": "view",
      "type": "function"
    }
  ],
  "bytecode": "0x60806040526000600960146101000a81548160ff021916908315150217905550336000806101000a81548173ffffffffffffffffffffffffffffffffffffffff021916908373ffffffffffffffffffffffffffffffffffffffff16021790555061187e8061006e6000396000f300608060405260043610610107576000357c0100000000000000000000000000000000000000000000000000000000900463ffffffff1680630519ce791461010c57806306fdde03146101375780630a0f8168146101625780630ab0df871461018d57806327d7874c146101b85780632ba73c15146101e15780634e0a33791461020a5780635600f04f146102335780635c975abb1461025e5780637284e416146102895780637cc1f867146102b457806383920e90146102e45780638da5cb5b1461030f578063a4d66daf1461033a578063b047fb5014610365578063c623674f14610390578063d321fe29146103bb578063d3b89467146103e6578063f2fde38b14610423575b600080fd5b34801561011857600080fd5b5061012161044c565b60405161012e919061165d565b60405180910390f35b34801561014357600080fd5b5061014c610472565b60405161015991906116b5565b60405180910390f35b34801561016e57600080fd5b50610177610510565b604051610184919061165d565b60405180910390f35b34801561019957600080fd5b506101a2610536565b6040516101af91906116d7565b60405180910390f35b3480156101c457600080fd5b506101df60048036036101da9190810190611496565b61053c565b005b3480156101ed57600080fd5b5061020860048036036102039190810190611496565b610618565b005b34801561021657600080fd5b50610231600480360361022c9190810190611496565b6106f4565b005b34801561023f57600080fd5b506102486107d0565b60405161025591906116b5565b60405180910390f35b34801561026a57600080fd5b5061027361086e565b604051610280919061169a565b60405180910390f35b34801561029557600080fd5b5061029e610881565b6040516102ab91906116b5565b60405180910390f35b3480156102c057600080fd5b506102c961091f565b6040516102db969594939291906116f2565b60405180910390f35b3480156102f057600080fd5b506102f9610bbb565b6040516103069190611678565b60405180910390f35b34801561031b57600080fd5b50610324610e6b565b604051610331919061165d565b60405180910390f35b34801561034657600080fd5b5061034f610e90565b60405161035c91906116d7565b60405180910390f35b34801561037157600080fd5b5061037a610e96565b604051610387919061165d565b60405180910390f35b34801561039c57600080fd5b506103a5610ebc565b6040516103b291906116b5565b60405180910390f35b3480156103c757600080fd5b506103d0610f5a565b6040516103dd91906116d7565b60405180910390f35b3480156103f257600080fd5b5061040d60048036036104089190810190611496565b610fa1565b60405161041a9190611678565b60405180910390f35b34801561042f57600080fd5b5061044a60048036036104459190810190611496565b611360565b005b600860009054906101000a900473ffffffffffffffffffffffffffffffffffffffff1681565b60058054600181600116156101000203166002900480601f0160208091040260200160405190810160405280929190818152602001828054600181600116156101000203166002900480156105085780601f106104dd57610100808354040283529160200191610508565b820191906000526020600020905b8154815290600101906020018083116104eb57829003601f168201915b505050505081565b600760009054906101000a900473ffffffffffffffffffffffffffffffffffffffff1681565b60065481565b600760009054906101000a900473ffffffffffffffffffffffffffffffffffffffff1673ffffffffffffffffffffffffffffffffffffffff163373ffffffffffffffffffffffffffffffffffffffff1614151561059857600080fd5b600073ffffffffffffffffffffffffffffffffffffffff168173ffffffffffffffffffffffffffffffffffffffff16141515156105d457600080fd5b80600760006101000a81548173ffffffffffffffffffffffffffffffffffffffff021916908373ffffffffffffffffffffffffffffffffffffffff16021790555050565b600760009054906101000a900473ffffffffffffffffffffffffffffffffffffffff1673ffffffffffffffffffffffffffffffffffffffff163373ffffffffffffffffffffffffffffffffffffffff1614151561067457600080fd5b600073ffffffffffffffffffffffffffffffffffffffff168173ffffffffffffffffffffffffffffffffffffffff16141515156106b057600080fd5b80600960006101000a81548173ffffffffffffffffffffffffffffffffffffffff021916908373ffffffffffffffffffffffffffffffffffffffff16021790555050565b600760009054906101000a900473ffffffffffffffffffffffffffffffffffffffff1673ffffffffffffffffffffffffffffffffffffffff163373ffffffffffffffffffffffffffffffffffffffff1614151561075057600080fd5b600073ffffffffffffffffffffffffffffffffffffffff168173ffffffffffffffffffffffffffffffffffffffff161415151561078c57600080fd5b80600860006101000a81548173ffffffffffffffffffffffffffffffffffffffff021916908373ffffffffffffffffffffffffffffffffffffffff16021790555050565b60038054600181600116156101000203166002900480601f0160208091040260200160405190810160405280929190818152602001828054600181600116156101000203166002900480156108665780601f1061083b57610100808354040283529160200191610866565b820191906000526020600020905b81548152906001019060200180831161084957829003601f168201915b505050505081565b600960149054906101000a900460ff1681565b60028054600181600116156101000203166002900480601f0160208091040260200160405190810160405280929190818152602001828054600181600116156101000203166002900480156109175780601f106108ec57610100808354040283529160200191610917565b820191906000526020600020905b8154815290600101906020018083116108fa57829003601f168201915b505050505081565b600060608060608060006001546002600360046005600654848054600181600116156101000203166002900480601f0160208091040260200160405190810160405280929190818152602001828054600181600116156101000203166002900480156109cc5780601f106109a1576101008083540402835291602001916109cc565b820191906000526020600020905b8154815290600101906020018083116109af57829003601f168201915b50505050509450838054600181600116156101000203166002900480601f016020809104026020016040519081016040528092919081815260200182805460018160011615610100020316600290048015610a685780601f10610a3d57610100808354040283529160200191610a68565b820191906000526020600020905b815481529060010190602001808311610a4b57829003601f168201915b50505050509350828054600181600116156101000203166002900480601f016020809104026020016040519081016040528092919081815260200182805460018160011615610100020316600290048015610b045780601f10610ad957610100808354040283529160200191610b04565b820191906000526020600020905b815481529060010190602001808311610ae757829003601f168201915b50505050509250818054600181600116156101000203166002900480601f016020809104026020016040519081016040528092919081815260200182805460018160011615610100020316600290048015610ba05780601f10610b7557610100808354040283529160200191610ba0565b820191906000526020600020905b815481529060010190602001808311610b8357829003601f168201915b50505050509150955095509550955095509550909192939495565b6060600b805480602002602001604051908101604052809291908181526020016000905b82821015610e62578382906000526020600020906006020160c06040519081016040529081600082018054600181600116156101000203166002900480601f016020809104026020016040519081016040528092919081815260200182805460018160011615610100020316600290048015610c9c5780601f10610c7157610100808354040283529160200191610c9c565b820191906000526020600020905b815481529060010190602001808311610c7f57829003601f168201915b505050505081526020016001820160009054906101000a900473ffffffffffffffffffffffffffffffffffffffff1673ffffffffffffffffffffffffffffffffffffffff1673ffffffffffffffffffffffffffffffffffffffff1681526020016002820154815260200160038201548152602001600482018054600181600116156101000203166002900480601f016020809104026020016040519081016040528092919081815260200182805460018160011615610100020316600290048015610da85780601f10610d7d57610100808354040283529160200191610da8565b820191906000526020600020905b815481529060010190602001808311610d8b57829003601f168201915b50505050508152602001600582018054600181600116156101000203166002900480601f016020809104026020016040519081016040528092919081815260200182805460018160011615610100020316600290048015610e4a5780601f10610e1f57610100808354040283529160200191610e4a565b820191906000526020600020905b815481529060010190602001808311610e2d57829003601f168201915b50505050508152505081526020019060010190610bdf565b50505050905090565b6000809054906101000a900473ffffffffffffffffffffffffffffffffffffffff1681565b60015481565b600960009054906101000a900473ffffffffffffffffffffffffffffffffffffffff1681565b60048054600181600116156101000203166002900480601f016020809104026020016040519081016040528092919081815260200182805460018160011615610100020316600290048015610f525780601f10610f2757610100808354040283529160200191610f52565b820191906000526020600020905b815481529060010190602001808311610f3557829003601f168201915b505050505081565b6000600c60003373ffffffffffffffffffffffffffffffffffffffff1673ffffffffffffffffffffffffffffffffffffffff16815260200190815260200160002054905090565b606080600080600d60008673ffffffffffffffffffffffffffffffffffffffff1673ffffffffffffffffffffffffffffffffffffffff1681526020019081526020016000205460405190808252806020026020018201604052801561102057816020015b61100d611435565b8152602001906001900390816110055790505b50925060009150600090505b600b80549050811015611355578473ffffffffffffffffffffffffffffffffffffffff16600b8281548110151561105f57fe5b906000526020600020906006020160010160009054906101000a900473ffffffffffffffffffffffffffffffffffffffff1673ffffffffffffffffffffffffffffffffffffffff16141561134857600b818154811015156110bc57fe5b906000526020600020906006020160c06040519081016040529081600082018054600181600116156101000203166002900480601f01602080910402602001604051908101604052809291908181526020018280546001816001161561010002031660029004801561116f5780601f106111445761010080835404028352916020019161116f565b820191906000526020600020905b81548152906001019060200180831161115257829003601f168201915b505050505081526020016001820160009054906101000a900473ffffffffffffffffffffffffffffffffffffffff1673ffffffffffffffffffffffffffffffffffffffff1673ffffffffffffffffffffffffffffffffffffffff1681526020016002820154815260200160038201548152602001600482018054600181600116156101000203166002900480601f01602080910402602001604051908101604052809291908181526020018280546001816001161561010002031660029004801561127b5780601f106112505761010080835404028352916020019161127b565b820191906000526020600020905b81548152906001019060200180831161125e57829003601f168201915b50505050508152602001600582018054600181600116156101000203166002900480601f01602080910402602001604051908101604052809291908181526020018280546001816001161561010002031660029004801561131d5780601f106112f25761010080835404028352916020019161131d565b820191906000526020600020905b81548152906001019060200180831161130057829003601f168201915b505050505081525050838380600101945081518110151561133a57fe5b906020019060200201819052505b808060010191505061102c565b829350505050919050565b6000809054906101000a900473ffffffffffffffffffffffffffffffffffffffff1673ffffffffffffffffffffffffffffffffffffffff163373ffffffffffffffffffffffffffffffffffffffff161415156113bb57600080fd5b600073ffffffffffffffffffffffffffffffffffffffff168173ffffffffffffffffffffffffffffffffffffffff1614151561143257806000806101000a81548173ffffffffffffffffffffffffffffffffffffffff021916908373ffffffffffffffffffffffffffffffffffffffff1602179055505b50565b60c06040519081016040528060608152602001600073ffffffffffffffffffffffffffffffffffffffff168152602001600081526020016000815260200160608152602001606081525090565b600061148e82356117e0565b905092915050565b6000602082840312156114a857600080fd5b60006114b684828501611482565b91505092915050565b6114c8816117aa565b82525050565b60006114d98261177c565b808452602084019350836020820285016114f28561176f565b60005b8481101561152b57838303885261150d8383516115b7565b92506115188261179d565b91506020880197506001810190506114f5565b508196508694505050505092915050565b611545816117ca565b82525050565b600061155682611792565b80845261156a816020860160208601611800565b61157381611833565b602085010191505092915050565b600061158c82611787565b8084526115a0816020860160208601611800565b6115a981611833565b602085010191505092915050565b600060c08301600083015184820360008601526115d48282611581565b91505060208301516115e960208601826114bf565b5060408301516115fc604086018261164e565b50606083015161160f606086018261164e565b50608083015184820360808601526116278282611581565b91505060a083015184820360a08601526116418282611581565b9150508091505092915050565b611657816117d6565b82525050565b600060208201905061167260008301846114bf565b92915050565b6000602082019050818103600083015261169281846114ce565b905092915050565b60006020820190506116af600083018461153c565b92915050565b600060208201905081810360008301526116cf8184611581565b905092915050565b60006020820190506116ec600083018461164e565b92915050565b600060c082019050611707600083018961164e565b8181036020830152611719818861154b565b9050818103604083015261172d818761154b565b90508181036060830152611741818661154b565b90508181036080830152611755818561154b565b905061176460a083018461164e565b979650505050505050565b6000602082019050919050565b600081519050919050565b600081519050919050565b600081519050919050565b6000602082019050919050565b600073ffffffffffffffffffffffffffffffffffffffff82169050919050565b60008115159050919050565b6000819050919050565b600073ffffffffffffffffffffffffffffffffffffffff82169050919050565b60005b8381101561181e578082015181840152602081019050611803565b8381111561182d576000848401525b50505050565b6000601f19601f83011690509190505600a265627a7a723058208bd19dfa4795e7357329171cd982f5f0ea56b1246e1a879c76739e262930a4e86c6578706572696d656e74616cf50037",
  "source": "pragma experimental ABIEncoderV2;\r\n\r\nimport \"./GYPBase.sol\";\r\nimport \"./AccessControl.sol\";\r\nimport \"./RMBToken.sol\";\r\n\r\ncontract GYPTransfer is GYPBase, AccessControl{\r\n\r\n  // @dev rmb代币地址\r\n  RMBToken rmbToken;\r\n\r\n  // @dev 交易的相关信息\r\n  struct TransactionData{\r\n    string name;        // 转出名称（项目名称或者受助者名字）\r\n    address to;         // 转出地址\r\n    uint256 amount;     // 转出金额\r\n    uint256 timeStamp;  // 转账时间\r\n    string data;        // 转出说明\r\n    string url;         // 附加网址\r\n  }\r\n\r\n  TransactionData[] data;   // 合约所有交易数据\r\n  mapping (address => uint256) addressToAmount; // 某个地址对应的捐献金额\r\n  mapping (address => uint256) addressToTimes;  // 与某个地址的转账次数\r\n\r\n  // 每次转账的时候都会触发该事件\r\n  event Transfer(address _from, address _to, uint256 _amount, TransactionData _data);\r\n\r\n  // @dev 转账功能\r\n  // @param 转出地址，转出金额，转出说明\r\n  // @return 转账是否成功\r\n  function _transfer(address _to, uint256 _amount, TransactionData _data) internal returns(bool){\r\n    bool res = rmbToken.transfer(_to, _amount);\r\n    if (res == true) {\r\n      data.push(_data);\r\n      emit Transfer(msg.sender, _to, _amount, _data);\r\n      return true;\r\n    }\r\n\r\n    addressToTimes[_to]++;\r\n\r\n    return false;\r\n  }\r\n\r\n  // @dev 每个地址对应的转出金额\r\n  function _addAmount(address _to, uint256 _amount) internal view {\r\n    addressToAmount[_to].add(_amount);\r\n  }\r\n\r\n  // @dev 当某个地址回退金额时,删除映射\r\n  function _subAmount(address _to) internal{\r\n    require(_to != address(0));\r\n    delete addressToAmount[_to];\r\n  }\r\n\r\n  // @ dev 设置token地址\r\n  // @ notice 自动初始化，或者ceo调用\r\n  function _setTokenAddress(address _rmbAddr) internal {\r\n    require(_rmbAddr != address(0));\r\n    rmbToken = RMBToken(_rmbAddr);\r\n  }\r\n\r\n  // @dev 返回某个地址对应的捐献金额\r\n  function getAmount() external view returns(uint256) {\r\n    return addressToAmount[msg.sender];\r\n  }\r\n\r\n  /*\r\n  // @dev 获取某个地址对于的交易id\r\n  function getIdByAddress(address _to) internal view returns(uint256[]) {\r\n    uint256[] memory ID = new uint256[](addressToTimes[_to]);\r\n    uint pos = 0;\r\n    for (uint256 i = 0; i < data.length; i++) {\r\n     if (data[i].to == _to) {\r\n       ID[pos++] = i;\r\n     }\r\n    }\r\n    return ID;\r\n  }\r\n\r\n  // @dev 通过ID获取某笔交易数据\r\n  function getTransactionById(uint256 _id) internal view returns(TransactionData) {\r\n    require(_id < data.length);\r\n    return data[_id];\r\n  }\r\n  */\r\n\r\n  // @dev 通过某个地址获取相关的转账信息\r\n  function getTransactionByAddress(address _addr)\r\n    external\r\n    view\r\n    returns(TransactionData[])\r\n    {\r\n      TransactionData[] memory tmpData = new TransactionData[](addressToTimes[_addr]);\r\n      uint256 pos = 0;\r\n      for (uint256 i = 0; i < data.length; i++) {\r\n        if (data[i].to == _addr) {\r\n          tmpData[pos++] = data[i];\r\n        }\r\n    }\r\n    return tmpData;\r\n  }\r\n\r\n  // @dev 获取合约所有转账信息\r\n  function getTransactions() external view returns(TransactionData[]) {\r\n    return data;\r\n  }\r\n\r\n}\r\n",
  "sourcePath": "D:\\programming\\dapp\\gongyi\\contracts\\GYPTransfer.sol",
  "compiler": {
    "name": "solc",
    "version": "0.4.24+commit.e67f0147.Emscripten.clang"
  },
  "schemaVersion": "2.0.0",
  "updatedAt": "2018-08-13T05:54:01.307Z"
}