{
  "contractName": "PullPayment",
  "abi": [
    {
      "constant": true,
      "inputs": [],
      "name": "totalPayments",
      "outputs": [
        {
          "name": "",
          "type": "uint256"
        }
      ],
      "payable": false,
      "stateMutability": "view",
      "type": "function"
    },
    {
      "constant": true,
      "inputs": [
        {
          "name": "",
          "type": "address"
        }
      ],
      "name": "payments",
      "outputs": [
        {
          "name": "",
          "type": "uint256"
        }
      ],
      "payable": false,
      "stateMutability": "view",
      "type": "function"
    },
    {
      "constant": false,
      "inputs": [],
      "name": "withdrawPayments",
      "outputs": [],
      "payable": false,
      "stateMutability": "nonpayable",
      "type": "function"
    }
  ],
  "bytecode": "0x608060405234801561001057600080fd5b50610283806100206000396000f300608060405260043610610056576000357c0100000000000000000000000000000000000000000000000000000000900463ffffffff1680625b44871461005b5780636103d70b14610086578063e2982c211461009d575b600080fd5b34801561006757600080fd5b506100706100f4565b6040518082815260200191505060405180910390f35b34801561009257600080fd5b5061009b6100fa565b005b3480156100a957600080fd5b506100de600480360381019080803573ffffffffffffffffffffffffffffffffffffffff169060200190929190505050610221565b6040518082815260200191505060405180910390f35b60015481565b6000803391506000808373ffffffffffffffffffffffffffffffffffffffff1673ffffffffffffffffffffffffffffffffffffffff1681526020019081526020016000205490506000811415151561015157600080fd5b803073ffffffffffffffffffffffffffffffffffffffff16311015151561017757600080fd5b61018c8160015461023990919063ffffffff16565b60018190555060008060008473ffffffffffffffffffffffffffffffffffffffff1673ffffffffffffffffffffffffffffffffffffffff168152602001908152602001600020819055508173ffffffffffffffffffffffffffffffffffffffff166108fc829081150290604051600060405180830381858888f1935050505015801561021c573d6000803e3d6000fd5b505050565b60006020528060005260406000206000915090505481565b60008083831115151561024857fe5b828403905080915050929150505600a165627a7a72305820584e3e281d0c9fc0cbff485fa6a35b1d68afbb1b6623235f0c8c516c78953cb70029",
  "source": "pragma solidity^0.4.21;\r\n\r\nimport \"./SafeMath.sol\";\r\n\r\n\r\n/**\r\n * @title PullPayment\r\n * @dev Base contract supporting async send for pull payments. Inherit from this\r\n * contract and use asyncSend instead of send or transfer.\r\n */\r\ncontract PullPayment {\r\n  using SafeMath for uint256;\r\n\r\n  mapping(address => uint256) public payments;\r\n  uint256 public totalPayments;\r\n\r\n  /**\r\n  * @dev Withdraw accumulated balance, called by payee.\r\n  */\r\n  function withdrawPayments() public {\r\n    address payee = msg.sender;\r\n    uint256 payment = payments[payee];\r\n\r\n    require(payment != 0);\r\n    require(address(this).balance >= payment);\r\n\r\n    totalPayments = totalPayments.sub(payment);\r\n    payments[payee] = 0;\r\n\r\n    payee.transfer(payment);\r\n  }\r\n\r\n  /**\r\n  * @dev Called by the payer to store the sent amount as credit to be pulled.\r\n  * @param dest The destination address of the funds.\r\n  * @param amount The amount to transfer.\r\n  */\r\n  function asyncSend(address dest, uint256 amount) internal {\r\n    payments[dest] = payments[dest].add(amount);\r\n    totalPayments = totalPayments.add(amount);\r\n  }\r\n}\r\n",
  "sourcePath": "D:\\programming\\dapp\\gongyi\\contracts\\PullPayment.sol",
  "compiler": {
    "name": "solc",
    "version": "0.4.24+commit.e67f0147.Emscripten.clang"
  },
  "schemaVersion": "2.0.0",
  "updatedAt": "2018-08-13T05:54:01.309Z"
}